{
  "_format": "hh-sol-artifact-1",
  "contractName": "GasTracker",
  "sourceName": "contracts/GasTracker.sol",
  "abi": [
    {
      "anonymous": false,
      "inputs": [
        {
          "indexed": false,
          "internalType": "string",
          "name": "functionName",
          "type": "string"
        },
        {
          "indexed": false,
          "internalType": "uint256",
          "name": "GasUsed",
          "type": "uint256"
        }
      ],
      "name": "GasUsed",
      "type": "event"
    },
    {
      "inputs": [
        {
          "internalType": "uint256",
          "name": "seedNumber",
          "type": "uint256"
        }
      ],
      "name": "gasHeavy",
      "outputs": [],
      "stateMutability": "nonpayable",
      "type": "function"
    },
    {
      "inputs": [
        {
          "internalType": "uint256",
          "name": "seedNumber",
          "type": "uint256"
        }
      ],
      "name": "gasIntermediate",
      "outputs": [],
      "stateMutability": "nonpayable",
      "type": "function"
    },
    {
      "inputs": [
        {
          "internalType": "uint256",
          "name": "seedNumber",
          "type": "uint256"
        }
      ],
      "name": "gasLight",
      "outputs": [],
      "stateMutability": "nonpayable",
      "type": "function"
    }
  ],
  "bytecode": "0x6080604052348015600f57600080fd5b506104eb8061001f6000396000f3fe608060405234801561001057600080fd5b50600436106100415760003560e01c80630802e4a01461004657806347f737c214610062578063f7fd49481461007e575b600080fd5b610060600480360381019061005b9190610221565b61009a565b005b61007c60048036038101906100779190610221565b61012a565b005b61009860048036038101906100939190610221565b610188565b005b60005a90506000805b838110156100dc578081826100b8919061027d565b6100c2919061027d565b826100cd919061027d565b915080806001019150506100a3565b5060005a90507f443ab68a4cacb08d38c92183e87a41d7056d4e3f5587d896f025fb5026afc096818461010f91906102b1565b60405161011c9190610351565b60405180910390a150505050565b60005a9050818261013b919061027d565b5060005a90507f443ab68a4cacb08d38c92183e87a41d7056d4e3f5587d896f025fb5026afc096818361016e91906102b1565b60405161017b91906103cb565b60405180910390a1505050565b60005a9050818261019991906103f9565b5060005a90507f443ab68a4cacb08d38c92183e87a41d7056d4e3f5587d896f025fb5026afc09681836101cc91906102b1565b6040516101d99190610487565b60405180910390a1505050565b600080fd5b6000819050919050565b6101fe816101eb565b811461020957600080fd5b50565b60008135905061021b816101f5565b92915050565b600060208284031215610237576102366101e6565b5b60006102458482850161020c565b91505092915050565b7f4e487b7100000000000000000000000000000000000000000000000000000000600052601160045260246000fd5b6000610288826101eb565b9150610293836101eb565b92508282019050808211156102ab576102aa61024e565b5b92915050565b60006102bc826101eb565b91506102c7836101eb565b92508282039050818111156102df576102de61024e565b5b92915050565b600082825260208201905092915050565b7f6761734865617679000000000000000000000000000000000000000000000000600082015250565b600061032c6008836102e5565b9150610337826102f6565b602082019050919050565b61034b816101eb565b82525050565b6000604082019050818103600083015261036a8161031f565b90506103796020830184610342565b92915050565b7f6761734c69676874000000000000000000000000000000000000000000000000600082015250565b60006103b56008836102e5565b91506103c08261037f565b602082019050919050565b600060408201905081810360008301526103e4816103a8565b90506103f36020830184610342565b92915050565b6000610404826101eb565b915061040f836101eb565b925082820261041d816101eb565b915082820484148315176104345761043361024e565b5b5092915050565b7f676173496e7465726d6564696174650000000000000000000000000000000000600082015250565b6000610471600f836102e5565b915061047c8261043b565b602082019050919050565b600060408201905081810360008301526104a081610464565b90506104af6020830184610342565b9291505056fea2646970667358221220f2fbdc6fc123c30f18cadcd0f7607d3f34820e6ce7ee517f82f3234420fc7ca364736f6c634300081b0033",
  "linkReferences": {},
  "deployedLinkReferences": {}
}