{"contracts/GasTracker.sol":{"GasTracker":{"abi":[{"anonymous":false,"inputs":[{"indexed":false,"internalType":"string","name":"functionName","type":"string"},{"indexed":false,"internalType":"uint256","name":"GasUsed","type":"uint256"}],"name":"GasUsed","type":"event"},{"inputs":[{"internalType":"uint256","name":"seedNumber","type":"uint256"}],"name":"gasHeavy","outputs":[],"stateMutability":"nonpayable","type":"function"},{"inputs":[{"internalType":"uint256","name":"seedNumber","type":"uint256"}],"name":"gasIntermediate","outputs":[],"stateMutability":"nonpayable","type":"function"},{"inputs":[{"internalType":"uint256","name":"seedNumber","type":"uint256"}],"name":"gasLight","outputs":[],"stateMutability":"nonpayable","type":"function"}],"evm":{"bytecode":{"linkReferences":{},"object":"6080604052348015600f57600080fd5b506104eb8061001f6000396000f3fe608060405234801561001057600080fd5b50600436106100415760003560e01c80630802e4a01461004657806347f737c214610062578063f7fd49481461007e575b600080fd5b610060600480360381019061005b9190610221565b61009a565b005b61007c60048036038101906100779190610221565b61012a565b005b61009860048036038101906100939190610221565b610188565b005b60005a90506000805b838110156100dc578081826100b8919061027d565b6100c2919061027d565b826100cd919061027d565b915080806001019150506100a3565b5060005a90507f443ab68a4cacb08d38c92183e87a41d7056d4e3f5587d896f025fb5026afc096818461010f91906102b1565b60405161011c9190610351565b60405180910390a150505050565b60005a9050818261013b919061027d565b5060005a90507f443ab68a4cacb08d38c92183e87a41d7056d4e3f5587d896f025fb5026afc096818361016e91906102b1565b60405161017b91906103cb565b60405180910390a1505050565b60005a9050818261019991906103f9565b5060005a90507f443ab68a4cacb08d38c92183e87a41d7056d4e3f5587d896f025fb5026afc09681836101cc91906102b1565b6040516101d99190610487565b60405180910390a1505050565b600080fd5b6000819050919050565b6101fe816101eb565b811461020957600080fd5b50565b60008135905061021b816101f5565b92915050565b600060208284031215610237576102366101e6565b5b60006102458482850161020c565b91505092915050565b7f4e487b7100000000000000000000000000000000000000000000000000000000600052601160045260246000fd5b6000610288826101eb565b9150610293836101eb565b92508282019050808211156102ab576102aa61024e565b5b92915050565b60006102bc826101eb565b91506102c7836101eb565b92508282039050818111156102df576102de61024e565b5b92915050565b600082825260208201905092915050565b7f6761734865617679000000000000000000000000000000000000000000000000600082015250565b600061032c6008836102e5565b9150610337826102f6565b602082019050919050565b61034b816101eb565b82525050565b6000604082019050818103600083015261036a8161031f565b90506103796020830184610342565b92915050565b7f6761734c69676874000000000000000000000000000000000000000000000000600082015250565b60006103b56008836102e5565b91506103c08261037f565b602082019050919050565b600060408201905081810360008301526103e4816103a8565b90506103f36020830184610342565b92915050565b6000610404826101eb565b915061040f836101eb565b925082820261041d816101eb565b915082820484148315176104345761043361024e565b5b5092915050565b7f676173496e7465726d6564696174650000000000000000000000000000000000600082015250565b6000610471600f836102e5565b915061047c8261043b565b602082019050919050565b600060408201905081810360008301526104a081610464565b90506104af6020830184610342565b9291505056fea2646970667358221220f2fbdc6fc123c30f18cadcd0f7607d3f34820e6ce7ee517f82f3234420fc7ca364736f6c634300081b0033","opcodes":"PUSH1 0x80 PUSH1 0x40 MSTORE CALLVALUE DUP1 ISZERO PUSH1 0xF JUMPI PUSH1 0x0 DUP1 REVERT JUMPDEST POP PUSH2 0x4EB DUP1 PUSH2 0x1F PUSH1 0x0 CODECOPY PUSH1 0x0 RETURN INVALID PUSH1 0x80 PUSH1 0x40 MSTORE CALLVALUE DUP1 ISZERO PUSH2 0x10 JUMPI PUSH1 0x0 DUP1 REVERT JUMPDEST POP PUSH1 0x4 CALLDATASIZE LT PUSH2 0x41 JUMPI PUSH1 0x0 CALLDATALOAD PUSH1 0xE0 SHR DUP1 PUSH4 0x802E4A0 EQ PUSH2 0x46 JUMPI DUP1 PUSH4 0x47F737C2 EQ PUSH2 0x62 JUMPI DUP1 PUSH4 0xF7FD4948 EQ PUSH2 0x7E JUMPI JUMPDEST PUSH1 0x0 DUP1 REVERT JUMPDEST PUSH2 0x60 PUSH1 0x4 DUP1 CALLDATASIZE SUB DUP2 ADD SWAP1 PUSH2 0x5B SWAP2 SWAP1 PUSH2 0x221 JUMP JUMPDEST PUSH2 0x9A JUMP JUMPDEST STOP JUMPDEST PUSH2 0x7C PUSH1 0x4 DUP1 CALLDATASIZE SUB DUP2 ADD SWAP1 PUSH2 0x77 SWAP2 SWAP1 PUSH2 0x221 JUMP JUMPDEST PUSH2 0x12A JUMP JUMPDEST STOP JUMPDEST PUSH2 0x98 PUSH1 0x4 DUP1 CALLDATASIZE SUB DUP2 ADD SWAP1 PUSH2 0x93 SWAP2 SWAP1 PUSH2 0x221 JUMP JUMPDEST PUSH2 0x188 JUMP JUMPDEST STOP JUMPDEST PUSH1 0x0 GAS SWAP1 POP PUSH1 0x0 DUP1 JUMPDEST DUP4 DUP2 LT ISZERO PUSH2 0xDC JUMPI DUP1 DUP2 DUP3 PUSH2 0xB8 SWAP2 SWAP1 PUSH2 0x27D JUMP JUMPDEST PUSH2 0xC2 SWAP2 SWAP1 PUSH2 0x27D JUMP JUMPDEST DUP3 PUSH2 0xCD SWAP2 SWAP1 PUSH2 0x27D JUMP JUMPDEST SWAP2 POP DUP1 DUP1 PUSH1 0x1 ADD SWAP2 POP POP PUSH2 0xA3 JUMP JUMPDEST POP PUSH1 0x0 GAS SWAP1 POP PUSH32 0x443AB68A4CACB08D38C92183E87A41D7056D4E3F5587D896F025FB5026AFC096 DUP2 DUP5 PUSH2 0x10F SWAP2 SWAP1 PUSH2 0x2B1 JUMP JUMPDEST PUSH1 0x40 MLOAD PUSH2 0x11C SWAP2 SWAP1 PUSH2 0x351 JUMP JUMPDEST PUSH1 0x40 MLOAD DUP1 SWAP2 SUB SWAP1 LOG1 POP POP POP POP JUMP JUMPDEST PUSH1 0x0 GAS SWAP1 POP DUP2 DUP3 PUSH2 0x13B SWAP2 SWAP1 PUSH2 0x27D JUMP JUMPDEST POP PUSH1 0x0 GAS SWAP1 POP PUSH32 0x443AB68A4CACB08D38C92183E87A41D7056D4E3F5587D896F025FB5026AFC096 DUP2 DUP4 PUSH2 0x16E SWAP2 SWAP1 PUSH2 0x2B1 JUMP JUMPDEST PUSH1 0x40 MLOAD PUSH2 0x17B SWAP2 SWAP1 PUSH2 0x3CB JUMP JUMPDEST PUSH1 0x40 MLOAD DUP1 SWAP2 SUB SWAP1 LOG1 POP POP POP JUMP JUMPDEST PUSH1 0x0 GAS SWAP1 POP DUP2 DUP3 PUSH2 0x199 SWAP2 SWAP1 PUSH2 0x3F9 JUMP JUMPDEST POP PUSH1 0x0 GAS SWAP1 POP PUSH32 0x443AB68A4CACB08D38C92183E87A41D7056D4E3F5587D896F025FB5026AFC096 DUP2 DUP4 PUSH2 0x1CC SWAP2 SWAP1 PUSH2 0x2B1 JUMP JUMPDEST PUSH1 0x40 MLOAD PUSH2 0x1D9 SWAP2 SWAP1 PUSH2 0x487 JUMP JUMPDEST PUSH1 0x40 MLOAD DUP1 SWAP2 SUB SWAP1 LOG1 POP POP POP JUMP JUMPDEST PUSH1 0x0 DUP1 REVERT JUMPDEST PUSH1 0x0 DUP2 SWAP1 POP SWAP2 SWAP1 POP JUMP JUMPDEST PUSH2 0x1FE DUP2 PUSH2 0x1EB JUMP JUMPDEST DUP2 EQ PUSH2 0x209 JUMPI PUSH1 0x0 DUP1 REVERT JUMPDEST POP JUMP JUMPDEST PUSH1 0x0 DUP2 CALLDATALOAD SWAP1 POP PUSH2 0x21B DUP2 PUSH2 0x1F5 JUMP JUMPDEST SWAP3 SWAP2 POP POP JUMP JUMPDEST PUSH1 0x0 PUSH1 0x20 DUP3 DUP5 SUB SLT ISZERO PUSH2 0x237 JUMPI PUSH2 0x236 PUSH2 0x1E6 JUMP JUMPDEST JUMPDEST PUSH1 0x0 PUSH2 0x245 DUP5 DUP3 DUP6 ADD PUSH2 0x20C JUMP JUMPDEST SWAP2 POP POP SWAP3 SWAP2 POP POP JUMP JUMPDEST PUSH32 0x4E487B7100000000000000000000000000000000000000000000000000000000 PUSH1 0x0 MSTORE PUSH1 0x11 PUSH1 0x4 MSTORE PUSH1 0x24 PUSH1 0x0 REVERT JUMPDEST PUSH1 0x0 PUSH2 0x288 DUP3 PUSH2 0x1EB JUMP JUMPDEST SWAP2 POP PUSH2 0x293 DUP4 PUSH2 0x1EB JUMP JUMPDEST SWAP3 POP DUP3 DUP3 ADD SWAP1 POP DUP1 DUP3 GT ISZERO PUSH2 0x2AB JUMPI PUSH2 0x2AA PUSH2 0x24E JUMP JUMPDEST JUMPDEST SWAP3 SWAP2 POP POP JUMP JUMPDEST PUSH1 0x0 PUSH2 0x2BC DUP3 PUSH2 0x1EB JUMP JUMPDEST SWAP2 POP PUSH2 0x2C7 DUP4 PUSH2 0x1EB JUMP JUMPDEST SWAP3 POP DUP3 DUP3 SUB SWAP1 POP DUP2 DUP2 GT ISZERO PUSH2 0x2DF JUMPI PUSH2 0x2DE PUSH2 0x24E JUMP JUMPDEST JUMPDEST SWAP3 SWAP2 POP POP JUMP JUMPDEST PUSH1 0x0 DUP3 DUP3 MSTORE PUSH1 0x20 DUP3 ADD SWAP1 POP SWAP3 SWAP2 POP POP JUMP JUMPDEST PUSH32 0x6761734865617679000000000000000000000000000000000000000000000000 PUSH1 0x0 DUP3 ADD MSTORE POP JUMP JUMPDEST PUSH1 0x0 PUSH2 0x32C PUSH1 0x8 DUP4 PUSH2 0x2E5 JUMP JUMPDEST SWAP2 POP PUSH2 0x337 DUP3 PUSH2 0x2F6 JUMP JUMPDEST PUSH1 0x20 DUP3 ADD SWAP1 POP SWAP2 SWAP1 POP JUMP JUMPDEST PUSH2 0x34B DUP2 PUSH2 0x1EB JUMP JUMPDEST DUP3 MSTORE POP POP JUMP JUMPDEST PUSH1 0x0 PUSH1 0x40 DUP3 ADD SWAP1 POP DUP2 DUP2 SUB PUSH1 0x0 DUP4 ADD MSTORE PUSH2 0x36A DUP2 PUSH2 0x31F JUMP JUMPDEST SWAP1 POP PUSH2 0x379 PUSH1 0x20 DUP4 ADD DUP5 PUSH2 0x342 JUMP JUMPDEST SWAP3 SWAP2 POP POP JUMP JUMPDEST PUSH32 0x6761734C69676874000000000000000000000000000000000000000000000000 PUSH1 0x0 DUP3 ADD MSTORE POP JUMP JUMPDEST PUSH1 0x0 PUSH2 0x3B5 PUSH1 0x8 DUP4 PUSH2 0x2E5 JUMP JUMPDEST SWAP2 POP PUSH2 0x3C0 DUP3 PUSH2 0x37F JUMP JUMPDEST PUSH1 0x20 DUP3 ADD SWAP1 POP SWAP2 SWAP1 POP JUMP JUMPDEST PUSH1 0x0 PUSH1 0x40 DUP3 ADD SWAP1 POP DUP2 DUP2 SUB PUSH1 0x0 DUP4 ADD MSTORE PUSH2 0x3E4 DUP2 PUSH2 0x3A8 JUMP JUMPDEST SWAP1 POP PUSH2 0x3F3 PUSH1 0x20 DUP4 ADD DUP5 PUSH2 0x342 JUMP JUMPDEST SWAP3 SWAP2 POP POP JUMP JUMPDEST PUSH1 0x0 PUSH2 0x404 DUP3 PUSH2 0x1EB JUMP JUMPDEST SWAP2 POP PUSH2 0x40F DUP4 PUSH2 0x1EB JUMP JUMPDEST SWAP3 POP DUP3 DUP3 MUL PUSH2 0x41D DUP2 PUSH2 0x1EB JUMP JUMPDEST SWAP2 POP DUP3 DUP3 DIV DUP5 EQ DUP4 ISZERO OR PUSH2 0x434 JUMPI PUSH2 0x433 PUSH2 0x24E JUMP JUMPDEST JUMPDEST POP SWAP3 SWAP2 POP POP JUMP JUMPDEST PUSH32 0x676173496E7465726D6564696174650000000000000000000000000000000000 PUSH1 0x0 DUP3 ADD MSTORE POP JUMP JUMPDEST PUSH1 0x0 PUSH2 0x471 PUSH1 0xF DUP4 PUSH2 0x2E5 JUMP JUMPDEST SWAP2 POP PUSH2 0x47C DUP3 PUSH2 0x43B JUMP JUMPDEST PUSH1 0x20 DUP3 ADD SWAP1 POP SWAP2 SWAP1 POP JUMP JUMPDEST PUSH1 0x0 PUSH1 0x40 DUP3 ADD SWAP1 POP DUP2 DUP2 SUB PUSH1 0x0 DUP4 ADD MSTORE PUSH2 0x4A0 DUP2 PUSH2 0x464 JUMP JUMPDEST SWAP1 POP PUSH2 0x4AF PUSH1 0x20 DUP4 ADD DUP5 PUSH2 0x342 JUMP JUMPDEST SWAP3 SWAP2 POP POP JUMP INVALID LOG2 PUSH5 0x6970667358 0x22 SLT KECCAK256 CALLCODE 0xFB 0xDC PUSH16 0xC123C30F18CADCD0F7607D3F34820E6C 0xE7 0xEE MLOAD PUSH32 0x82F3234420FC7CA364736F6C634300081B003300000000000000000000000000 "},"methodIdentifiers":{"gasHeavy(uint256)":"0802e4a0","gasIntermediate(uint256)":"f7fd4948","gasLight(uint256)":"47f737c2"}}}}}