{
  "_format": "hh-sol-artifact-1",
  "contractName": "SimpleStorage",
  "sourceName": "contracts/SimpleStorage.sol",
  "abi": [
    {
      "inputs": [],
      "stateMutability": "nonpayable",
      "type": "constructor"
    },
    {
      "anonymous": false,
      "inputs": [
        {
          "indexed": false,
          "internalType": "uint256",
          "name": "oldValue",
          "type": "uint256"
        },
        {
          "indexed": false,
          "internalType": "uint256",
          "name": "newValue",
          "type": "uint256"
        }
      ],
      "name": "ValueChanged",
      "type": "event"
    },
    {
      "inputs": [],
      "name": "getValue",
      "outputs": [
        {
          "internalType": "uint256",
          "name": "",
          "type": "uint256"
        }
      ],
      "stateMutability": "view",
      "type": "function"
    },
    {
      "inputs": [],
      "name": "owner",
      "outputs": [
        {
          "internalType": "address",
          "name": "",
          "type": "address"
        }
      ],
      "stateMutability": "view",
      "type": "function"
    },
    {
      "inputs": [
        {
          "internalType": "uint256",
          "name": "newValue",
          "type": "uint256"
        }
      ],
      "name": "setValue",
      "outputs": [],
      "stateMutability": "nonpayable",
      "type": "function"
    },
    {
      "inputs": [],
      "name": "storedValue",
      "outputs": [
        {
          "internalType": "uint256",
          "name": "",
          "type": "uint256"
        }
      ],
      "stateMutability": "view",
      "type": "function"
    }
  ],
  "bytecode": "0x6080604052348015600f57600080fd5b5033600160006101000a81548173ffffffffffffffffffffffffffffffffffffffff021916908373ffffffffffffffffffffffffffffffffffffffff16021790555061044f806100606000396000f3fe608060405234801561001057600080fd5b506004361061004c5760003560e01c80632096525514610051578063552410771461006f5780636d619daa1461008b5780638da5cb5b146100a9575b600080fd5b6100596100c7565b6040516100669190610232565b60405180910390f35b6100896004803603810190610084919061027e565b6100d0565b005b6100936101ed565b6040516100a09190610232565b60405180910390f35b6100b16101f3565b6040516100be91906102ec565b60405180910390f35b60008054905090565b3373ffffffffffffffffffffffffffffffffffffffff16600160009054906101000a900473ffffffffffffffffffffffffffffffffffffffff1673ffffffffffffffffffffffffffffffffffffffff1614610160576040517f08c379a000000000000000000000000000000000000000000000000000000000815260040161015790610364565b60405180910390fd5b600a81116101a3576040517f08c379a000000000000000000000000000000000000000000000000000000000815260040161019a906103d0565b60405180910390fd5b600080549050816000819055507f2db947ef788961acc438340dbcb4e242f80d026b621b7c98ee3061995039038281836040516101e19291906103f0565b60405180910390a15050565b60005481565b600160009054906101000a900473ffffffffffffffffffffffffffffffffffffffff1681565b6000819050919050565b61022c81610219565b82525050565b60006020820190506102476000830184610223565b92915050565b600080fd5b61025b81610219565b811461026657600080fd5b50565b60008135905061027881610252565b92915050565b6000602082840312156102945761029361024d565b5b60006102a284828501610269565b91505092915050565b600073ffffffffffffffffffffffffffffffffffffffff82169050919050565b60006102d6826102ab565b9050919050565b6102e6816102cb565b82525050565b600060208201905061030160008301846102dd565b92915050565b600082825260208201905092915050565b7f4e6f7420746865204f776e657200000000000000000000000000000000000000600082015250565b600061034e600d83610307565b915061035982610318565b602082019050919050565b6000602082019050818103600083015261037d81610341565b9050919050565b7f56616c7565206d7573742062652067726561746572207468616e203130000000600082015250565b60006103ba601d83610307565b91506103c582610384565b602082019050919050565b600060208201905081810360008301526103e9816103ad565b9050919050565b60006040820190506104056000830185610223565b6104126020830184610223565b939250505056fea26469706673582212206c2ae3cf6b00c89be0f97dab459b6513cede4a7568c0efd7f09ded8f36728e8464736f6c634300081b0033",
  "linkReferences": {},
  "deployedLinkReferences": {}
}