{
  "_format": "hh-sol-artifact-1",
  "contractName": "VotingSystem",
  "sourceName": "contracts/VotingSystem.sol",
  "abi": [
    {
      "inputs": [],
      "stateMutability": "nonpayable",
      "type": "constructor"
    },
    {
      "anonymous": false,
      "inputs": [
        {
          "indexed": false,
          "internalType": "uint256",
          "name": "proposalID",
          "type": "uint256"
        },
        {
          "indexed": false,
          "internalType": "string",
          "name": "description",
          "type": "string"
        }
      ],
      "name": "ProposalCreated",
      "type": "event"
    },
    {
      "anonymous": false,
      "inputs": [
        {
          "indexed": false,
          "internalType": "address",
          "name": "voter",
          "type": "address"
        },
        {
          "indexed": false,
          "internalType": "uint256",
          "name": "proposalID",
          "type": "uint256"
        }
      ],
      "name": "VoteCast",
      "type": "event"
    },
    {
      "inputs": [
        {
          "internalType": "uint256",
          "name": "proposalID",
          "type": "uint256"
        }
      ],
      "name": "castVote",
      "outputs": [],
      "stateMutability": "nonpayable",
      "type": "function"
    },
    {
      "inputs": [
        {
          "internalType": "string",
          "name": "description",
          "type": "string"
        }
      ],
      "name": "createProposal",
      "outputs": [],
      "stateMutability": "nonpayable",
      "type": "function"
    },
    {
      "inputs": [
        {
          "internalType": "uint256",
          "name": "proposalID",
          "type": "uint256"
        }
      ],
      "name": "getVotes",
      "outputs": [
        {
          "internalType": "uint256",
          "name": "",
          "type": "uint256"
        }
      ],
      "stateMutability": "view",
      "type": "function"
    },
    {
      "inputs": [],
      "name": "owner",
      "outputs": [
        {
          "internalType": "address",
          "name": "",
          "type": "address"
        }
      ],
      "stateMutability": "view",
      "type": "function"
    },
    {
      "inputs": [],
      "name": "proposalCount",
      "outputs": [
        {
          "internalType": "uint256",
          "name": "",
          "type": "uint256"
        }
      ],
      "stateMutability": "view",
      "type": "function"
    },
    {
      "inputs": [
        {
          "internalType": "uint256",
          "name": "",
          "type": "uint256"
        }
      ],
      "name": "proposalDescription",
      "outputs": [
        {
          "internalType": "string",
          "name": "",
          "type": "string"
        }
      ],
      "stateMutability": "view",
      "type": "function"
    },
    {
      "inputs": [
        {
          "internalType": "uint256",
          "name": "",
          "type": "uint256"
        }
      ],
      "name": "proposalVotes",
      "outputs": [
        {
          "internalType": "uint256",
          "name": "",
          "type": "uint256"
        }
      ],
      "stateMutability": "view",
      "type": "function"
    },
    {
      "inputs": [
        {
          "internalType": "address",
          "name": "",
          "type": "address"
        },
        {
          "internalType": "uint256",
          "name": "",
          "type": "uint256"
        }
      ],
      "name": "voterVotes",
      "outputs": [
        {
          "internalType": "bool",
          "name": "",
          "type": "bool"
        }
      ],
      "stateMutability": "view",
      "type": "function"
    }
  ],
  "bytecode": "0x6080604052348015600f57600080fd5b5033600360006101000a81548173ffffffffffffffffffffffffffffffffffffffff021916908373ffffffffffffffffffffffffffffffffffffffff1602179055506000600481905550610f77806100686000396000f3fe608060405234801561001057600080fd5b50600436106100885760003560e01c80638da5cb5b1161005b5780638da5cb5b146101255780638de034e514610143578063da35c66414610173578063ff9810991461019157610088565b80633830fdea1461008d5780633eb76b9c146100bd57806349c2a1a6146100d9578063544ffc9c146100f5575b600080fd5b6100a760048036038101906100a29190610672565b6101c1565b6040516100b4919061072f565b60405180910390f35b6100d760048036038101906100d29190610672565b610261565b005b6100f360048036038101906100ee9190610886565b610474565b005b61010f600480360381019061010a9190610672565b610599565b60405161011c91906108de565b60405180910390f35b61012d6105b1565b60405161013a919061093a565b60405180910390f35b61015d60048036038101906101589190610981565b6105d7565b60405161016a91906109dc565b60405180910390f35b61017b610606565b60405161018891906108de565b60405180910390f35b6101ab60048036038101906101a69190610672565b61060c565b6040516101b891906108de565b60405180910390f35b600260205280600052604060002060009150905080546101e090610a26565b80601f016020809104026020016040519081016040528092919081815260200182805461020c90610a26565b80156102595780601f1061022e57610100808354040283529160200191610259565b820191906000526020600020905b81548152906001019060200180831161023c57829003601f168201915b505050505081565b6004548111156102a6576040517f08c379a000000000000000000000000000000000000000000000000000000000815260040161029d90610aa3565b60405180910390fd5b60006002600083815260200190815260200160002080546102c690610a26565b905011610308576040517f08c379a00000000000000000000000000000000000000000000000000000000081526004016102ff90610b0f565b60405180910390fd5b600160003373ffffffffffffffffffffffffffffffffffffffff1673ffffffffffffffffffffffffffffffffffffffff168152602001908152602001600020600082815260200190815260200160002060009054906101000a900460ff16156103a6576040517f08c379a000000000000000000000000000000000000000000000000000000000815260040161039d90610b7b565b60405180910390fd5b60018060003373ffffffffffffffffffffffffffffffffffffffff1673ffffffffffffffffffffffffffffffffffffffff168152602001908152602001600020600083815260200190815260200160002060006101000a81548160ff021916908315150217905550600160008083815260200190815260200160002060008282546104319190610bca565b925050819055507fa36cc2bebb74db33e9f88110a07ef56e1b31b24b4c4f51b54b1664266e29f45b3382604051610469929190610bfe565b60405180910390a150565b600360009054906101000a900473ffffffffffffffffffffffffffffffffffffffff1673ffffffffffffffffffffffffffffffffffffffff163373ffffffffffffffffffffffffffffffffffffffff1614610504576040517f08c379a00000000000000000000000000000000000000000000000000000000081526004016104fb90610c73565b60405180910390fd5b6001600460008282546105179190610bca565b92505081905550600080600060045481526020019081526020016000208190555080600260006004548152602001908152602001600020908161055a9190610e3f565b507f9c770c289ab5bf7e57cb1d23c8ceae993aea46eb64847072fd3d78ca60d3e4326004548260405161058e929190610f11565b60405180910390a150565b60006020528060005260406000206000915090505481565b600360009054906101000a900473ffffffffffffffffffffffffffffffffffffffff1681565b60016020528160005260406000206020528060005260406000206000915091509054906101000a900460ff1681565b60045481565b6000806000838152602001908152602001600020549050919050565b6000604051905090565b600080fd5b600080fd5b6000819050919050565b61064f8161063c565b811461065a57600080fd5b50565b60008135905061066c81610646565b92915050565b60006020828403121561068857610687610632565b5b60006106968482850161065d565b91505092915050565b600081519050919050565b600082825260208201905092915050565b60005b838110156106d95780820151818401526020810190506106be565b60008484015250505050565b6000601f19601f8301169050919050565b60006107018261069f565b61070b81856106aa565b935061071b8185602086016106bb565b610724816106e5565b840191505092915050565b6000602082019050818103600083015261074981846106f6565b905092915050565b600080fd5b600080fd5b7f4e487b7100000000000000000000000000000000000000000000000000000000600052604160045260246000fd5b610793826106e5565b810181811067ffffffffffffffff821117156107b2576107b161075b565b5b80604052505050565b60006107c5610628565b90506107d1828261078a565b919050565b600067ffffffffffffffff8211156107f1576107f061075b565b5b6107fa826106e5565b9050602081019050919050565b82818337600083830152505050565b6000610829610824846107d6565b6107bb565b90508281526020810184848401111561084557610844610756565b5b610850848285610807565b509392505050565b600082601f83011261086d5761086c610751565b5b813561087d848260208601610816565b91505092915050565b60006020828403121561089c5761089b610632565b5b600082013567ffffffffffffffff8111156108ba576108b9610637565b5b6108c684828501610858565b91505092915050565b6108d88161063c565b82525050565b60006020820190506108f360008301846108cf565b92915050565b600073ffffffffffffffffffffffffffffffffffffffff82169050919050565b6000610924826108f9565b9050919050565b61093481610919565b82525050565b600060208201905061094f600083018461092b565b92915050565b61095e81610919565b811461096957600080fd5b50565b60008135905061097b81610955565b92915050565b6000806040838503121561099857610997610632565b5b60006109a68582860161096c565b92505060206109b78582860161065d565b9150509250929050565b60008115159050919050565b6109d6816109c1565b82525050565b60006020820190506109f160008301846109cd565b92915050565b7f4e487b7100000000000000000000000000000000000000000000000000000000600052602260045260246000fd5b60006002820490506001821680610a3e57607f821691505b602082108103610a5157610a506109f7565b5b50919050565b7f50726f706f73616c20446f65736e277420457869737400000000000000000000600082015250565b6000610a8d6016836106aa565b9150610a9882610a57565b602082019050919050565b60006020820190508181036000830152610abc81610a80565b9050919050565b7f50726f706f73616c20446f65736e277420457878697374000000000000000000600082015250565b6000610af96017836106aa565b9150610b0482610ac3565b602082019050919050565b60006020820190508181036000830152610b2881610aec565b9050919050565b7f566f7465722068617320566f74656420616c7265616479000000000000000000600082015250565b6000610b656017836106aa565b9150610b7082610b2f565b602082019050919050565b60006020820190508181036000830152610b9481610b58565b9050919050565b7f4e487b7100000000000000000000000000000000000000000000000000000000600052601160045260246000fd5b6000610bd58261063c565b9150610be08361063c565b9250828201905080821115610bf857610bf7610b9b565b5b92915050565b6000604082019050610c13600083018561092b565b610c2060208301846108cf565b9392505050565b7f6e6f7420746865206f776e657200000000000000000000000000000000000000600082015250565b6000610c5d600d836106aa565b9150610c6882610c27565b602082019050919050565b60006020820190508181036000830152610c8c81610c50565b9050919050565b60008190508160005260206000209050919050565b60006020601f8301049050919050565b600082821b905092915050565b600060088302610cf57fffffffffffffffffffffffffffffffffffffffffffffffffffffffffffffffff82610cb8565b610cff8683610cb8565b95508019841693508086168417925050509392505050565b6000819050919050565b6000610d3c610d37610d328461063c565b610d17565b61063c565b9050919050565b6000819050919050565b610d5683610d21565b610d6a610d6282610d43565b848454610cc5565b825550505050565b600090565b610d7f610d72565b610d8a818484610d4d565b505050565b5b81811015610dae57610da3600082610d77565b600181019050610d90565b5050565b601f821115610df357610dc481610c93565b610dcd84610ca8565b81016020851015610ddc578190505b610df0610de885610ca8565b830182610d8f565b50505b505050565b600082821c905092915050565b6000610e1660001984600802610df8565b1980831691505092915050565b6000610e2f8383610e05565b9150826002028217905092915050565b610e488261069f565b67ffffffffffffffff811115610e6157610e6061075b565b5b610e6b8254610a26565b610e76828285610db2565b600060209050601f831160018114610ea95760008415610e97578287015190505b610ea18582610e23565b865550610f09565b601f198416610eb786610c93565b60005b82811015610edf57848901518255600182019150602085019450602081019050610eba565b86831015610efc5784890151610ef8601f891682610e05565b8355505b6001600288020188555050505b505050505050565b6000604082019050610f2660008301856108cf565b8181036020830152610f3881846106f6565b9050939250505056fea26469706673582212206ccdda0a4ef5ce2d74d3d22702090cece8a15113ea7a8c0af502947cefa1d93f64736f6c634300081b0033",
  "linkReferences": {},
  "deployedLinkReferences": {}
}